{
  "_format": "hh-sol-artifact-1",
  "contractName": "Flashloan",
  "sourceName": "contracts/Flashloan.sol",
  "abi": [
    {
      "inputs": [
        {
          "internalType": "contract IPoolAddressesProvider",
          "name": "_addressProvider",
          "type": "address"
        }
      ],
      "stateMutability": "nonpayable",
      "type": "constructor"
    },
    {
      "anonymous": false,
      "inputs": [
        {
          "indexed": true,
          "internalType": "address",
          "name": "previousOwner",
          "type": "address"
        },
        {
          "indexed": true,
          "internalType": "address",
          "name": "newOwner",
          "type": "address"
        }
      ],
      "name": "OwnershipTransferred",
      "type": "event"
    },
    {
      "stateMutability": "payable",
      "type": "fallback"
    },
    {
      "inputs": [],
      "name": "ADDRESSES_PROVIDER",
      "outputs": [
        {
          "internalType": "contract IPoolAddressesProvider",
          "name": "",
          "type": "address"
        }
      ],
      "stateMutability": "view",
      "type": "function"
    },
    {
      "inputs": [],
      "name": "ADDRESS_PROVIDER",
      "outputs": [
        {
          "internalType": "contract IPoolAddressesProvider",
          "name": "",
          "type": "address"
        }
      ],
      "stateMutability": "view",
      "type": "function"
    },
    {
      "inputs": [],
      "name": "LENDINGPOOL",
      "outputs": [
        {
          "internalType": "contract IPool",
          "name": "",
          "type": "address"
        }
      ],
      "stateMutability": "view",
      "type": "function"
    },
    {
      "inputs": [],
      "name": "POOL",
      "outputs": [
        {
          "internalType": "contract IPool",
          "name": "",
          "type": "address"
        }
      ],
      "stateMutability": "view",
      "type": "function"
    },
    {
      "inputs": [
        {
          "internalType": "address",
          "name": "_asset",
          "type": "address"
        },
        {
          "internalType": "uint256",
          "name": "_amount",
          "type": "uint256"
        },
        {
          "internalType": "uint256",
          "name": "_fee",
          "type": "uint256"
        },
        {
          "internalType": "address",
          "name": "_initiator",
          "type": "address"
        },
        {
          "internalType": "bytes",
          "name": "_params",
          "type": "bytes"
        }
      ],
      "name": "executeOperation",
      "outputs": [
        {
          "internalType": "bool",
          "name": "",
          "type": "bool"
        }
      ],
      "stateMutability": "nonpayable",
      "type": "function"
    },
    {
      "inputs": [
        {
          "internalType": "bool",
          "name": "_startOnRouterB",
          "type": "bool"
        },
        {
          "internalType": "address",
          "name": "_token0",
          "type": "address"
        },
        {
          "internalType": "address",
          "name": "_token1",
          "type": "address"
        },
        {
          "internalType": "uint256",
          "name": "_flashAmount",
          "type": "uint256"
        },
        {
          "internalType": "address",
          "name": "_routerA",
          "type": "address"
        },
        {
          "internalType": "address",
          "name": "_routerB",
          "type": "address"
        },
        {
          "internalType": "bool[]",
          "name": "_routerVersions",
          "type": "bool[]"
        }
      ],
      "name": "executeTrade",
      "outputs": [],
      "stateMutability": "nonpayable",
      "type": "function"
    },
    {
      "inputs": [
        {
          "internalType": "address",
          "name": "_asset",
          "type": "address"
        },
        {
          "internalType": "uint256",
          "name": "_amount",
          "type": "uint256"
        },
        {
          "internalType": "bytes",
          "name": "_params",
          "type": "bytes"
        }
      ],
      "name": "flashLoanSimple",
      "outputs": [],
      "stateMutability": "nonpayable",
      "type": "function"
    },
    {
      "inputs": [],
      "name": "owner",
      "outputs": [
        {
          "internalType": "address",
          "name": "",
          "type": "address"
        }
      ],
      "stateMutability": "view",
      "type": "function"
    },
    {
      "inputs": [],
      "name": "renounceOwnership",
      "outputs": [],
      "stateMutability": "nonpayable",
      "type": "function"
    },
    {
      "inputs": [],
      "name": "routerAV2",
      "outputs": [
        {
          "internalType": "contract IUniswapV2Router02",
          "name": "",
          "type": "address"
        }
      ],
      "stateMutability": "view",
      "type": "function"
    },
    {
      "inputs": [],
      "name": "routerAV3",
      "outputs": [
        {
          "internalType": "contract ISwapRouter",
          "name": "",
          "type": "address"
        }
      ],
      "stateMutability": "view",
      "type": "function"
    },
    {
      "inputs": [],
      "name": "routerBV2",
      "outputs": [
        {
          "internalType": "contract IUniswapV2Router02",
          "name": "",
          "type": "address"
        }
      ],
      "stateMutability": "view",
      "type": "function"
    },
    {
      "inputs": [],
      "name": "routerBV3",
      "outputs": [
        {
          "internalType": "contract ISwapRouter",
          "name": "",
          "type": "address"
        }
      ],
      "stateMutability": "view",
      "type": "function"
    },
    {
      "inputs": [
        {
          "internalType": "address",
          "name": "newOwner",
          "type": "address"
        }
      ],
      "name": "transferOwnership",
      "outputs": [],
      "stateMutability": "nonpayable",
      "type": "function"
    },
    {
      "inputs": [],
      "name": "withdraw",
      "outputs": [],
      "stateMutability": "payable",
      "type": "function"
    }
  ],
  "bytecode": "0x6101006040523480156200001257600080fd5b50604051620030f1380380620030f183398181016040528101906200003891906200035d565b808073ffffffffffffffffffffffffffffffffffffffff1660808173ffffffffffffffffffffffffffffffffffffffff16815250508073ffffffffffffffffffffffffffffffffffffffff1663026b1d5f6040518163ffffffff1660e01b8152600401602060405180830381865afa158015620000b9573d6000803e3d6000fd5b505050506040513d601f19601f82011682018060405250810190620000df9190620003c0565b73ffffffffffffffffffffffffffffffffffffffff1660a08173ffffffffffffffffffffffffffffffffffffffff16815250505062000133620001276200021360201b60201c565b6200021b60201b60201c565b8073ffffffffffffffffffffffffffffffffffffffff1660c08173ffffffffffffffffffffffffffffffffffffffff16815250508073ffffffffffffffffffffffffffffffffffffffff1663026b1d5f6040518163ffffffff1660e01b8152600401602060405180830381865afa158015620001b3573d6000803e3d6000fd5b505050506040513d601f19601f82011682018060405250810190620001d99190620003c0565b73ffffffffffffffffffffffffffffffffffffffff1660e08173ffffffffffffffffffffffffffffffffffffffff168152505050620003f2565b600033905090565b60008060009054906101000a900473ffffffffffffffffffffffffffffffffffffffff169050816000806101000a81548173ffffffffffffffffffffffffffffffffffffffff021916908373ffffffffffffffffffffffffffffffffffffffff1602179055508173ffffffffffffffffffffffffffffffffffffffff168173ffffffffffffffffffffffffffffffffffffffff167f8be0079c531659141344cd1fd0a4f28419497f9722a3daafe3b4186f6b6457e060405160405180910390a35050565b600080fd5b600073ffffffffffffffffffffffffffffffffffffffff82169050919050565b60006200031182620002e4565b9050919050565b6000620003258262000304565b9050919050565b620003378162000318565b81146200034357600080fd5b50565b60008151905062000357816200032c565b92915050565b600060208284031215620003765762000375620002df565b5b6000620003868482850162000346565b91505092915050565b6200039a8162000304565b8114620003a657600080fd5b50565b600081519050620003ba816200038f565b92915050565b600060208284031215620003d957620003d8620002df565b5b6000620003e984828501620003a9565b91505092915050565b60805160a05160c05160e051612cb76200043a600039600081816103db0152610d970152600081816105ec0152610aec01526000610d4a015260006104750152612cb76000f3fe6080604052600436106100eb5760003560e01c806367594bf31161008a5780637535d246116100595780637535d246146102a85780638da5cb5b146102d3578063e0aa1d4b146102fe578063f2fde38b14610329576100ec565b806367594bf3146102105780636763f4d61461023b578063715018a614610266578063719ed8e21461027d576100ec565b806314ef81e0116100c657806314ef81e0146101735780631848effa1461019e5780631b11d0ff146101c95780633ccfd60b14610206576100ec565b8062666eea146100f65780630542975c1461011f5780630a6a7dc61461014a576100ec565b5b6100f4610352565b005b34801561010257600080fd5b5061011d60048036038101906101189190611bc7565b6103d2565b005b34801561012b57600080fd5b50610134610473565b6040516101419190611c95565b60405180910390f35b34801561015657600080fd5b50610171600480360381019061016c9190611d48565b610497565b005b34801561017f57600080fd5b506101886105c4565b6040516101959190611e2b565b60405180910390f35b3480156101aa57600080fd5b506101b36105ea565b6040516101c09190611c95565b60405180910390f35b3480156101d557600080fd5b506101f060048036038101906101eb9190611e9c565b61060e565b6040516101fd9190611f45565b60405180910390f35b61020e610352565b005b34801561021c57600080fd5b50610225610c4e565b6040516102329190611f81565b60405180910390f35b34801561024757600080fd5b50610250610c74565b60405161025d9190611f81565b60405180910390f35b34801561027257600080fd5b5061027b610c9a565b005b34801561028957600080fd5b50610292610d22565b60405161029f9190611e2b565b60405180910390f35b3480156102b457600080fd5b506102bd610d48565b6040516102ca9190611fbd565b60405180910390f35b3480156102df57600080fd5b506102e8610d6c565b6040516102f59190611fe7565b60405180910390f35b34801561030a57600080fd5b50610313610d95565b6040516103209190611fbd565b60405180910390f35b34801561033557600080fd5b50610350600480360381019061034b9190612002565b610db9565b005b600061035c610d6c565b73ffffffffffffffffffffffffffffffffffffffff164760405161037f90612060565b60006040518083038185875af1925050503d80600081146103bc576040519150601f19603f3d011682016040523d82523d6000602084013e6103c1565b606091505b50509050806103cf57600080fd5b50565b600030905060007f000000000000000000000000000000000000000000000000000000000000000073ffffffffffffffffffffffffffffffffffffffff166342b0b77c83878787866040518663ffffffff1660e01b815260040161043a959493929190612129565b600060405180830381600087803b15801561045457600080fd5b505af1158015610468573d6000803e3d6000fd5b505050505050505050565b7f000000000000000000000000000000000000000000000000000000000000000081565b6000828260008181106104ad576104ac612183565b5b90506020020160208101906104c291906121b2565b90506000838360018181106104da576104d9612183565b5b90506020020160208101906104ef91906121b2565b90506104fd86868686610eb1565b60008973ffffffffffffffffffffffffffffffffffffffff166370a08231306040518263ffffffff1660e01b81526004016105389190611fe7565b602060405180830381865afa158015610555573d6000803e3d6000fd5b505050506040513d601f19601f8201168201806040525081019061057991906121f4565b905060008b8b8b8b85888860405160200161059a9796959493929190612221565b60405160208183030381529060405290506105b68b8a836103d2565b505050505050505050505050565b600360009054906101000a900473ffffffffffffffffffffffffffffffffffffffff1681565b7f000000000000000000000000000000000000000000000000000000000000000081565b600061064e6040518060400160405280601a81526020017f657865637574654f7065726174696f6e28292063616c6c656421000000000000815250611023565b6000806000806000806000898981019061066891906122ce565b965096509650965096509650965060008c8e610684919061239f565b90506106c56040518060400160405280600c81526020017f666c617368416d6f756e743a0000000000000000000000000000000000000000815250866110bc565b6107046040518060400160405280600581526020017f5f6665653a0000000000000000000000000000000000000000000000000000008152508e6110bc565b6107436040518060400160405280600f81526020017f616d6f756e74546f52657475726e3a0000000000000000000000000000000000815250826110bc565b6000600267ffffffffffffffff8111156107605761075f611a9c565b5b60405190808252806020026020018201604052801561078e5781602001602082028036833780820191505090505b50905087816000815181106107a6576107a5612183565b5b602002602001019073ffffffffffffffffffffffffffffffffffffffff16908173ffffffffffffffffffffffffffffffffffffffff168152505086816001815181106107f5576107f4612183565b5b602002602001019073ffffffffffffffffffffffffffffffffffffffff16908173ffffffffffffffffffffffffffffffffffffffff16815250508815610976576108428187600086611158565b868160008151811061085757610856612183565b5b602002602001019073ffffffffffffffffffffffffffffffffffffffff16908173ffffffffffffffffffffffffffffffffffffffff168152505087816001815181106108a6576108a5612183565b5b602002602001019073ffffffffffffffffffffffffffffffffffffffff16908173ffffffffffffffffffffffffffffffffffffffff1681525050610971818873ffffffffffffffffffffffffffffffffffffffff166370a08231306040518263ffffffff1660e01b815260040161091d9190611fe7565b602060405180830381865afa15801561093a573d6000803e3d6000fd5b505050506040513d601f19601f8201168201806040525081019061095e91906121f4565b60018961096b919061239f565b8761151e565b610ab3565b610983818760008761151e565b868160008151811061099857610997612183565b5b602002602001019073ffffffffffffffffffffffffffffffffffffffff16908173ffffffffffffffffffffffffffffffffffffffff168152505087816001815181106109e7576109e6612183565b5b602002602001019073ffffffffffffffffffffffffffffffffffffffff16908173ffffffffffffffffffffffffffffffffffffffff1681525050610ab2818873ffffffffffffffffffffffffffffffffffffffff166370a08231306040518263ffffffff1660e01b8152600401610a5e9190611fe7565b602060405180830381865afa158015610a7b573d6000803e3d6000fd5b505050506040513d601f19601f82011682018060405250810190610a9f91906121f4565b600189610aac919061239f565b86611158565b5b80600081518110610ac757610ac6612183565b5b602002602001015173ffffffffffffffffffffffffffffffffffffffff1663095ea7b37f000000000000000000000000000000000000000000000000000000000000000073ffffffffffffffffffffffffffffffffffffffff1663026b1d5f6040518163ffffffff1660e01b8152600401602060405180830381865afa158015610b55573d6000803e3d6000fd5b505050506040513d601f19601f82011682018060405250810190610b79919061240a565b846040518363ffffffff1660e01b8152600401610b97929190612437565b6020604051808303816000875af1158015610bb6573d6000803e3d6000fd5b505050506040513d601f19601f82011682018060405250810190610bda9190612475565b610c19576040517f08c379a0000000000000000000000000000000000000000000000000000000008152600401610c1090612525565b60405180910390fd5b610c3b6040518060600160405280603c8152602001612c46603c9139476110bc565b5050505050505050509695505050505050565b600160009054906101000a900473ffffffffffffffffffffffffffffffffffffffff1681565b600260009054906101000a900473ffffffffffffffffffffffffffffffffffffffff1681565b610ca26118e4565b73ffffffffffffffffffffffffffffffffffffffff16610cc0610d6c565b73ffffffffffffffffffffffffffffffffffffffff1614610d16576040517f08c379a0000000000000000000000000000000000000000000000000000000008152600401610d0d90612591565b60405180910390fd5b610d2060006118ec565b565b600460009054906101000a900473ffffffffffffffffffffffffffffffffffffffff1681565b7f000000000000000000000000000000000000000000000000000000000000000081565b60008060009054906101000a900473ffffffffffffffffffffffffffffffffffffffff16905090565b7f000000000000000000000000000000000000000000000000000000000000000081565b610dc16118e4565b73ffffffffffffffffffffffffffffffffffffffff16610ddf610d6c565b73ffffffffffffffffffffffffffffffffffffffff1614610e35576040517f08c379a0000000000000000000000000000000000000000000000000000000008152600401610e2c90612591565b60405180910390fd5b600073ffffffffffffffffffffffffffffffffffffffff168173ffffffffffffffffffffffffffffffffffffffff161415610ea5576040517f08c379a0000000000000000000000000000000000000000000000000000000008152600401610e9c90612623565b60405180910390fd5b610eae816118ec565b50565b81816000818110610ec557610ec4612183565b5b9050602002016020810190610eda91906121b2565b15610f255783600160006101000a81548173ffffffffffffffffffffffffffffffffffffffff021916908373ffffffffffffffffffffffffffffffffffffffff160217905550610f67565b83600360006101000a81548173ffffffffffffffffffffffffffffffffffffffff021916908373ffffffffffffffffffffffffffffffffffffffff1602179055505b81816001818110610f7b57610f7a612183565b5b9050602002016020810190610f9091906121b2565b15610fdb5782600260006101000a81548173ffffffffffffffffffffffffffffffffffffffff021916908373ffffffffffffffffffffffffffffffffffffffff16021790555061101d565b82600460006101000a81548173ffffffffffffffffffffffffffffffffffffffff021916908373ffffffffffffffffffffffffffffffffffffffff1602179055505b50505050565b6110b9816040516024016110379190612687565b6040516020818303038152906040527f41304fac000000000000000000000000000000000000000000000000000000007bffffffffffffffffffffffffffffffffffffffffffffffffffffffff19166020820180517bffffffffffffffffffffffffffffffffffffffffffffffffffffffff83818316178352505050506119b0565b50565b61115482826040516024016110d29291906126a9565b6040516020818303038152906040527f9710a9d0000000000000000000000000000000000000000000000000000000007bffffffffffffffffffffffffffffffffffffffffffffffffffffffff19166020820180517bffffffffffffffffffffffffffffffffffffffffffffffffffffffff83818316178352505050506119b0565b5050565b8015611316578360008151811061117257611171612183565b5b602002602001015173ffffffffffffffffffffffffffffffffffffffff1663095ea7b3600260009054906101000a900473ffffffffffffffffffffffffffffffffffffffff16856040518363ffffffff1660e01b81526004016111d6929190612437565b6020604051808303816000875af11580156111f5573d6000803e3d6000fd5b505050506040513d601f19601f820116820180604052508101906112199190612475565b611258576040517f08c379a000000000000000000000000000000000000000000000000000000000815260040161124f90612725565b60405180910390fd5b600260009054906101000a900473ffffffffffffffffffffffffffffffffffffffff1673ffffffffffffffffffffffffffffffffffffffff166338ed1739848487306104b0426112a8919061239f565b6040518663ffffffff1660e01b81526004016112c8959493929190612803565b6000604051808303816000875af11580156112e7573d6000803e3d6000fd5b505050506040513d6000823e3d601f19601f820116820180604052508101906113109190612920565b50611518565b8360008151811061132a57611329612183565b5b602002602001015173ffffffffffffffffffffffffffffffffffffffff1663095ea7b3600460009054906101000a900473ffffffffffffffffffffffffffffffffffffffff16856040518363ffffffff1660e01b815260040161138e929190612437565b6020604051808303816000875af11580156113ad573d6000803e3d6000fd5b505050506040513d601f19601f820116820180604052508101906113d19190612475565b611410576040517f08c379a0000000000000000000000000000000000000000000000000000000008152600401611407906129b5565b60405180910390fd5b600460009054906101000a900473ffffffffffffffffffffffffffffffffffffffff1673ffffffffffffffffffffffffffffffffffffffff1663c04b8d596040518060a001604052808760405160200161146a9190612a65565b60405160208183030381529060405281526020013073ffffffffffffffffffffffffffffffffffffffff1681526020016104b0426114a8919061239f565b8152602001868152602001858152506040518263ffffffff1660e01b81526004016114d39190612b4b565b6020604051808303816000875af11580156114f2573d6000803e3d6000fd5b505050506040513d601f19601f8201168201806040525081019061151691906121f4565b505b50505050565b80156116dc578360008151811061153857611537612183565b5b602002602001015173ffffffffffffffffffffffffffffffffffffffff1663095ea7b3600160009054906101000a900473ffffffffffffffffffffffffffffffffffffffff16856040518363ffffffff1660e01b815260040161159c929190612437565b6020604051808303816000875af11580156115bb573d6000803e3d6000fd5b505050506040513d601f19601f820116820180604052508101906115df9190612475565b61161e576040517f08c379a000000000000000000000000000000000000000000000000000000000815260040161161590612bb9565b60405180910390fd5b600160009054906101000a900473ffffffffffffffffffffffffffffffffffffffff1673ffffffffffffffffffffffffffffffffffffffff166338ed1739848487306104b04261166e919061239f565b6040518663ffffffff1660e01b815260040161168e959493929190612803565b6000604051808303816000875af11580156116ad573d6000803e3d6000fd5b505050506040513d6000823e3d601f19601f820116820180604052508101906116d69190612920565b506118de565b836000815181106116f0576116ef612183565b5b602002602001015173ffffffffffffffffffffffffffffffffffffffff1663095ea7b3600360009054906101000a900473ffffffffffffffffffffffffffffffffffffffff16856040518363ffffffff1660e01b8152600401611754929190612437565b6020604051808303816000875af1158015611773573d6000803e3d6000fd5b505050506040513d601f19601f820116820180604052508101906117979190612475565b6117d6576040517f08c379a00000000000000000000000000000000000000000000000000000000081526004016117cd90612c25565b60405180910390fd5b600360009054906101000a900473ffffffffffffffffffffffffffffffffffffffff1673ffffffffffffffffffffffffffffffffffffffff1663c04b8d596040518060a00160405280876040516020016118309190612a65565b60405160208183030381529060405281526020013073ffffffffffffffffffffffffffffffffffffffff1681526020016104b04261186e919061239f565b8152602001868152602001858152506040518263ffffffff1660e01b81526004016118999190612b4b565b6020604051808303816000875af11580156118b8573d6000803e3d6000fd5b505050506040513d601f19601f820116820180604052508101906118dc91906121f4565b505b50505050565b600033905090565b60008060009054906101000a900473ffffffffffffffffffffffffffffffffffffffff169050816000806101000a81548173ffffffffffffffffffffffffffffffffffffffff021916908373ffffffffffffffffffffffffffffffffffffffff1602179055508173ffffffffffffffffffffffffffffffffffffffff168173ffffffffffffffffffffffffffffffffffffffff167f8be0079c531659141344cd1fd0a4f28419497f9722a3daafe3b4186f6b6457e060405160405180910390a35050565b60008151905060006a636f6e736f6c652e6c6f679050602083016000808483855afa5050505050565b6000604051905090565b600080fd5b600080fd5b600073ffffffffffffffffffffffffffffffffffffffff82169050919050565b6000611a18826119ed565b9050919050565b611a2881611a0d565b8114611a3357600080fd5b50565b600081359050611a4581611a1f565b92915050565b6000819050919050565b611a5e81611a4b565b8114611a6957600080fd5b50565b600081359050611a7b81611a55565b92915050565b600080fd5b600080fd5b6000601f19601f8301169050919050565b7f4e487b7100000000000000000000000000000000000000000000000000000000600052604160045260246000fd5b611ad482611a8b565b810181811067ffffffffffffffff82111715611af357611af2611a9c565b5b80604052505050565b6000611b066119d9565b9050611b128282611acb565b919050565b600067ffffffffffffffff821115611b3257611b31611a9c565b5b611b3b82611a8b565b9050602081019050919050565b82818337600083830152505050565b6000611b6a611b6584611b17565b611afc565b905082815260208101848484011115611b8657611b85611a86565b5b611b91848285611b48565b509392505050565b600082601f830112611bae57611bad611a81565b5b8135611bbe848260208601611b57565b91505092915050565b600080600060608486031215611be057611bdf6119e3565b5b6000611bee86828701611a36565b9350506020611bff86828701611a6c565b925050604084013567ffffffffffffffff811115611c2057611c1f6119e8565b5b611c2c86828701611b99565b9150509250925092565b6000819050919050565b6000611c5b611c56611c51846119ed565b611c36565b6119ed565b9050919050565b6000611c6d82611c40565b9050919050565b6000611c7f82611c62565b9050919050565b611c8f81611c74565b82525050565b6000602082019050611caa6000830184611c86565b92915050565b60008115159050919050565b611cc581611cb0565b8114611cd057600080fd5b50565b600081359050611ce281611cbc565b92915050565b600080fd5b600080fd5b60008083601f840112611d0857611d07611a81565b5b8235905067ffffffffffffffff811115611d2557611d24611ce8565b5b602083019150836020820283011115611d4157611d40611ced565b5b9250929050565b60008060008060008060008060e0898b031215611d6857611d676119e3565b5b6000611d768b828c01611cd3565b9850506020611d878b828c01611a36565b9750506040611d988b828c01611a36565b9650506060611da98b828c01611a6c565b9550506080611dba8b828c01611a36565b94505060a0611dcb8b828c01611a36565b93505060c089013567ffffffffffffffff811115611dec57611deb6119e8565b5b611df88b828c01611cf2565b92509250509295985092959890939650565b6000611e1582611c62565b9050919050565b611e2581611e0a565b82525050565b6000602082019050611e406000830184611e1c565b92915050565b60008083601f840112611e5c57611e5b611a81565b5b8235905067ffffffffffffffff811115611e7957611e78611ce8565b5b602083019150836001820283011115611e9557611e94611ced565b5b9250929050565b60008060008060008060a08789031215611eb957611eb86119e3565b5b6000611ec789828a01611a36565b9650506020611ed889828a01611a6c565b9550506040611ee989828a01611a6c565b9450506060611efa89828a01611a36565b935050608087013567ffffffffffffffff811115611f1b57611f1a6119e8565b5b611f2789828a01611e46565b92509250509295509295509295565b611f3f81611cb0565b82525050565b6000602082019050611f5a6000830184611f36565b92915050565b6000611f6b82611c62565b9050919050565b611f7b81611f60565b82525050565b6000602082019050611f966000830184611f72565b92915050565b6000611fa782611c62565b9050919050565b611fb781611f9c565b82525050565b6000602082019050611fd26000830184611fae565b92915050565b611fe181611a0d565b82525050565b6000602082019050611ffc6000830184611fd8565b92915050565b600060208284031215612018576120176119e3565b5b600061202684828501611a36565b91505092915050565b600081905092915050565b50565b600061204a60008361202f565b91506120558261203a565b600082019050919050565b600061206b8261203d565b9150819050919050565b61207e81611a4b565b82525050565b600081519050919050565b600082825260208201905092915050565b60005b838110156120be5780820151818401526020810190506120a3565b838111156120cd576000848401525b50505050565b60006120de82612084565b6120e8818561208f565b93506120f88185602086016120a0565b61210181611a8b565b840191505092915050565b600061ffff82169050919050565b6121238161210c565b82525050565b600060a08201905061213e6000830188611fd8565b61214b6020830187611fd8565b6121586040830186612075565b818103606083015261216a81856120d3565b9050612179608083018461211a565b9695505050505050565b7f4e487b7100000000000000000000000000000000000000000000000000000000600052603260045260246000fd5b6000602082840312156121c8576121c76119e3565b5b60006121d684828501611cd3565b91505092915050565b6000815190506121ee81611a55565b92915050565b60006020828403121561220a576122096119e3565b5b6000612218848285016121df565b91505092915050565b600060e082019050612236600083018a611f36565b6122436020830189611fd8565b6122506040830188611fd8565b61225d6060830187612075565b61226a6080830186612075565b61227760a0830185611f36565b61228460c0830184611f36565b98975050505050505050565b600061229b826119ed565b9050919050565b6122ab81612290565b81146122b657600080fd5b50565b6000813590506122c8816122a2565b92915050565b600080600080600080600060e0888a0312156122ed576122ec6119e3565b5b60006122fb8a828b01611cd3565b975050602061230c8a828b016122b9565b965050604061231d8a828b016122b9565b955050606061232e8a828b01611a6c565b945050608061233f8a828b01611a6c565b93505060a06123508a828b01611cd3565b92505060c06123618a828b01611cd3565b91505092959891949750929550565b7f4e487b7100000000000000000000000000000000000000000000000000000000600052601160045260246000fd5b60006123aa82611a4b565b91506123b583611a4b565b9250827fffffffffffffffffffffffffffffffffffffffffffffffffffffffffffffffff038211156123ea576123e9612370565b5b828201905092915050565b60008151905061240481611a1f565b92915050565b6000602082840312156124205761241f6119e3565b5b600061242e848285016123f5565b91505092915050565b600060408201905061244c6000830185611fd8565b6124596020830184612075565b9392505050565b60008151905061246f81611cbc565b92915050565b60006020828403121561248b5761248a6119e3565b5b600061249984828501612460565b91505092915050565b600082825260208201905092915050565b7f41415645204c656e64696e6720506f6f6c20617070726f76616c206661696c6560008201527f642e000000000000000000000000000000000000000000000000000000000000602082015250565b600061250f6022836124a2565b915061251a826124b3565b604082019050919050565b6000602082019050818103600083015261253e81612502565b9050919050565b7f4f776e61626c653a2063616c6c6572206973206e6f7420746865206f776e6572600082015250565b600061257b6020836124a2565b915061258682612545565b602082019050919050565b600060208201905081810360008301526125aa8161256e565b9050919050565b7f4f776e61626c653a206e6577206f776e657220697320746865207a65726f206160008201527f6464726573730000000000000000000000000000000000000000000000000000602082015250565b600061260d6026836124a2565b9150612618826125b1565b604082019050919050565b6000602082019050818103600083015261263c81612600565b9050919050565b600081519050919050565b600061265982612643565b61266381856124a2565b93506126738185602086016120a0565b61267c81611a8b565b840191505092915050565b600060208201905081810360008301526126a1818461264e565b905092915050565b600060408201905081810360008301526126c3818561264e565b90506126d26020830184612075565b9392505050565b7f726f7574657242563220617070726f76616c206661696c65642e000000000000600082015250565b600061270f601a836124a2565b915061271a826126d9565b602082019050919050565b6000602082019050818103600083015261273e81612702565b9050919050565b600081519050919050565b600082825260208201905092915050565b6000819050602082019050919050565b61277a81611a0d565b82525050565b600061278c8383612771565b60208301905092915050565b6000602082019050919050565b60006127b082612745565b6127ba8185612750565b93506127c583612761565b8060005b838110156127f65781516127dd8882612780565b97506127e883612798565b9250506001810190506127c9565b5085935050505092915050565b600060a0820190506128186000830188612075565b6128256020830187612075565b818103604083015261283781866127a5565b90506128466060830185611fd8565b6128536080830184612075565b9695505050505050565b600067ffffffffffffffff82111561287857612877611a9c565b5b602082029050602081019050919050565b600061289c6128978461285d565b611afc565b905080838252602082019050602084028301858111156128bf576128be611ced565b5b835b818110156128e857806128d488826121df565b8452602084019350506020810190506128c1565b5050509392505050565b600082601f83011261290757612906611a81565b5b8151612917848260208601612889565b91505092915050565b600060208284031215612936576129356119e3565b5b600082015167ffffffffffffffff811115612954576129536119e8565b5b612960848285016128f2565b91505092915050565b7f726f7574657242563320617070726f76616c206661696c65642e000000000000600082015250565b600061299f601a836124a2565b91506129aa82612969565b602082019050919050565b600060208201905081810360008301526129ce81612992565b9050919050565b600081905092915050565b6129e981611a0d565b82525050565b60006129fb83836129e0565b60208301905092915050565b6000612a1282612745565b612a1c81856129d5565b9350612a2783612761565b8060005b83811015612a58578151612a3f88826129ef565b9750612a4a83612798565b925050600181019050612a2b565b5085935050505092915050565b6000612a718284612a07565b915081905092915050565b600082825260208201905092915050565b6000612a9882612084565b612aa28185612a7c565b9350612ab28185602086016120a0565b612abb81611a8b565b840191505092915050565b612acf81611a4b565b82525050565b600060a0830160008301518482036000860152612af28282612a8d565b9150506020830151612b076020860182612771565b506040830151612b1a6040860182612ac6565b506060830151612b2d6060860182612ac6565b506080830151612b406080860182612ac6565b508091505092915050565b60006020820190508181036000830152612b658184612ad5565b905092915050565b7f726f7574657241563220617070726f76616c206661696c65642e000000000000600082015250565b6000612ba3601a836124a2565b9150612bae82612b6d565b602082019050919050565b60006020820190508181036000830152612bd281612b96565b9050919050565b7f726f7574657241563320617070726f76616c206661696c65642e000000000000600082015250565b6000612c0f601a836124a2565b9150612c1a82612bd9565b602082019050919050565b60006020820190508181036000830152612c3e81612c02565b905091905056fe42616c616e636520616674657220706f6f6c20617070726f76616c20286d6179206e6f742068617665206265656e2070756c6c65642079657421293aa2646970667358221220ed88260bafd0d71d11b9ceb2cb5f7c632f9b02fe522c661f2a3c152465d01dc064736f6c634300080a0033",
  "linkReferences": {},
  "deployedLinkReferences": {}
}